:0300000002010DED
:0C010D00787FE4F6D8FD75810B0200033A
:0A0119003F065B4F666D7D077F6FA8
:10000300E4F508F50920B1251200FF20B11F20B146
:1000130007AF091200C180F61200FF0509E5097058
:10002300020508646445087004F508F509AF091270
:1000330000C120B02E1200FF20B02820B007AF0966
:100043001200C180F61200FFD3E5099400E508947D
:1000530000400AE5091509700A15088006750800AD
:0A006300750963AF091200C1809B0C
:0400FF007FE27E041A
:0A010300EF1F70011E144E70F7226A
:1000C100EF75F00A84F50AEF75F00A8485F00BE408
:1000D100FF12006DE50A90011993F5807F647E009F
:1000E100120103E4F5807F0112006DE50B90011907
:0D00F10093F5807F647E00120103E4F5802A
:0100FE0022DF
:10006D00EFB40800504D90007AF8282873020092E2
:10007D0002009602009E0200A20200AA0200AE0239
:10008D0000B60200BAD2A28002C2A2D2A3D2A4802C
:10009D0022D2A28002C2A2C2A3D2A48016D2A28072
:1000AD0002C2A2D2A3C2A4800AD2A28002C2A2C25C
:0400BD00A3C2A42214
:00000001FF
